:020000020000FC
:040000000C9422003A
:04000C000C948C00C4
:100040000C94AE000FEF0DBF18E01EBF20E030E0B3
:1000500010E0C0E090E060E050E000E800E80093CD
:10006000610001E0009361000CEF0AB90CE00BB9EC
:100070000FE104B90FE007B901E00093680006E062
:1000800000936B001C9A78943F065B4F666D7C076B
:100090007F6F0E9482006A3039F1723349F10E9409
:1000A00067001B9A1C9AF0E0E8E8E50F94919BB971
:1000B0000E9467001B9A1C9AF0E0E8E8E60F949112
:1000C0009BB90E9467005630B9F00C944B003FEF8B
:1000D0003A95F1F73FEF3A95F1F73FEF3A95F1F79F
:1000E0003FEF3A95F1F7089560E053950C944B007B
:1000F000639570E00C944B000E94670050E060E054
:100100000C944B00A0E0A4BDA5E0A5BDA4E6A6BD4F
:10011000A1E0A0936E0008950F930FB70F9349B11C
:1001200042FD0C9496002A950C949C0042FD0C9480
:100130009C0023950C949C002F3F41F0203151F0FE
:1001400028B9D89A0F910FBF0F91189520E028B9C0
:100150000C949C002FE028B90C949C000F930FB7CF
:100160000F9304E606BDA89A73950F910FBF0F91E8
:020170001895E0
:00000001FF
